:020000040800F2
:10000000280B0020D5000008D5400008873C0008D8
:1000100000000000000000000000000000000000E0
:10002000000000000000000000000000C7440008BD
:10003000000000000000000085410008C9440008DD
:10004000E7000008E7000008E7000008E7000008F4
:10005000E7000008E7000008E70000086711000853
:10006000E7000008E7000008FD100008151100086F
:10007000E7000008E700000800000000C545000890
:1000800000000000D545000800000000000000004E
:10009000E700000800000000E7000008E700000893
:1000A000E7000008E7000008E70000080550000826
:1000B00035500008E7000008E7000008E7000008E6
:1000C0000348854600F03EFD00480047C977000818
:1000D000280B00200448804704480047FEE7FEE75D
:1000E000FEE7FEE7FEE7FEE75D450008C100000809
:1000F00030B50B46014600202022012409E00D46C0
:10010000D5409D4205D31D469540491B2546954047
:1001100040191546521E002DF1DC30BD70B500248B
:100120002546002801DA01244042002901DA012590
:100130004942FFF7DDFFAC4200D04042002C00D026
:10014000494270BDF0B51FB40646002082B0054696
:100150004024019100901BE0019922460F46304651
:1001600000F0F2FA049A059B801A994110D31046C8
:100170001946224600F0D8FA361A8F4101972246D6
:1001800001200021009F00F0CFFA38184D41009067
:100190002046641E0028DFDC019B00982946324679
:1001A00007B0F0BD03460B439B0703D009E008C925
:1001B000121F08C0042AFAD203E00B780370401C17
:1001C000491C521EF9D27047D2B201E00270401CA5
:1001D000491EFBD270470022F6E710B513460A46C7
:1001E00004461946FFF7F0FF204610BD421C017877
:1001F000401C0029FBD1801A704770B5064604F0F8
:1002000089FF046805460A220021304600F012FBEF
:100210002C6070BDF8B502464A40D40F42004B0036
:1002200052085B089A4202D20246084611464A002A
:1002300023D0C30D4A00DDB2120EAD1A202D35DADF
:1002400049020126490AF6058A19002C00D05242BB
:1002500020214F1B1146B9402A411018C20D9A4265
:1002600021D0002C17D0012D08DCDA05801AD20F1E
:100270008019D207DBB200F01DFBF8BDDA05801A49
:10028000012340001B06C01880185A428018CA0F6C
:100290001043490007E04908C2071143DA05801AF4
:1002A00080194008801800F0FDFAF8BD61000122B5
:1002B000511A001BF7E70122D2075140AAE7012299
:1002C000D2075040A6E7024670B54A40D30FDB077D
:1002D00040002DD04A002AD0010E140E0002120256
:1002E0000919400A520A8418E50104465443000AD9
:1002F000120A2E045043A4194219200CC543AA180F
:10030000120C0125AD03521C521912047F3924042A
:1003100000D0521C104301D44000491EC2B20C064A
:10032000C0092018401C4008802A02D003E00020A9
:1003300070BD40084000002900DA0020184370BD5D
:10034000F0B507460846584087B0C00F04904800F3
:100350000E46590040084908BC1A884105D2384663
:1003600031461E4617460B460246580040081043C9
:100370004CD0300D039040055900400D490D0590BB
:10038000401A0290402872DA18030121000B090577
:100390000843019004980092002805D00199524228
:1003A0000020884100920190029840210A1A019988
:1003B000009800F0B9F905460C466B4607CB00F0F3
:1003C000D4F9C0197141039A0E0D0023D717564076
:1003D0001A467A40164344D0049A002A2DD0029A35
:1003E000012A039A15DC1205C01A9141012636052F
:1003F000001C7141D20F059ED20700930192029614
:100400002A46234600F09CFA07B0F0BD3846314634
:10041000FAE71605224A0F46B218C01AB741012161
:100420000905001C4F4100187F41114618187941F9
:10043000E20F10436D19644113E0E2076D081543A4
:100440006408C2071443039A01261205C01A914199
:100450003605001C7141CE07400830434908C018DA
:1004600051412A46234600F05EFACDE7FFE70498A3
:1004700001224000C117121A00238B410498314613
:10048000C417381AA141EEE730B40124E4076340F1
:1004900030BC55E730B40124E407614030BC4FE77D
:1004A0000000E0FFF0B51FB488B00B990998002454
:1004B00048400999C00F490049080991C0070B99A4
:1004C0000090490049080B9109990898A6460843ED
:1004D0001CD00B990A98084318D0099801244000B1
:1004E000420D4800410D099824050003000B2043EC
:1004F00009900B980003000B20430B9050181C49E7
:100500004018002201901446104605E000200146E4
:100510000DB0F0BD032801DA034600E003239C463A
:10052000C11A0AAE0AE05F0008ADED5B4F00F75B51
:100530007D430027AA187C41491C5B1E6145F2DD02
:10054000410004AB5A522104120C0A43240C401CF3
:100550000828DFDB01980290009970460191009015
:10056000059B049A0799069800F0EAF9D0E7000085
:100570000DFCFFFFF0B50C465C4085B0E40FE407CE
:1005800003944C000026640859009446490802462A
:100590000296224321D062460A431ED06200570DC4
:1005A0004A000E032303550D012402462C4924055D
:1005B000781B1B0B360B40182343264361460090E3
:1005C0001C46501AB44103D30098401C009002E02E
:1005D000921800985B41002803DA0020014605B01C
:1005E000F0BD0020012109050746864611E064465A
:1005F0001D46141BB54106D36546521BB3417446D4
:1006000007430C43A646CD074008490828439218E3
:100610005B4105460D43EAD11046184313D06046AE
:10062000194650407140084306D06046101AB34145
:1006300006D20122002306E000220123DB0702E0AC
:100640000122D2435310009874460105381C6141C1
:10065000029C039D0019694100F065F9BFE70000A5
:10066000FD030000410040020122400AD205090EAC
:1006700080187F2901DA00207047962903DC962232
:10068000511AC8407047963988407047C20FD20748
:10069000400040080BD0C10D0723DB01C918400200
:1006A0000905400A1143C208400711437047002062
:1006B0000146704710B5002904DB0124E4074042DD
:1006C0008C412146002B04DB1C460123DB075242F0
:1006D000A3418B4200D1824210BD0000CB0FDB074B
:1006E000490010B5490802460A4307D00A0D0724FD
:1006F0000903E401090B121B002A01DC002010BDD4
:10070000C900440F0C43C100E018D205801800F066
:10071000C9F810BD0122D207002800DB101A0029F9
:1007200000DB511A8142704710B5202A04DB0146D4
:10073000203A9140002010BD914020239C1A03468E
:10074000E3401943904010BD10B5202A04DB084651
:10075000203AD040002110BD0B46D340D040202489
:10076000A21A91400843194610BD10B5202A06DB95
:10077000CB170846203A1041C1170B4306E00B4641
:100780001341D0402024A21A91400843194610BDBD
:100790000FB400B589B00CA900910B990023CB6070
:1007A000204B214A06930792042201921F4A02928B
:1007B0001F4A089202466B46002000F072FA09B008
:1007C00008BC04B0184770B586B006460020C04388
:1007D0000190002015460C4600910291049032468B
:1007E000694604A8FFF7D4FF024604982118002D9B
:1007F00005D0002801D0084600E020462860049873
:1008000000280DD0002A02DD0098884208D0081B7D
:100810000190009432466946029404A8FFF7B8FF9D
:1008200006B070BDF90E0008190F0008FFFFFF7F2A
:10083000710B0008F7B5009C0F4600262578641C54
:10084000002D05D000F090F90068405DC007F5D19B
:100850002B2D02D02D2D18D0641E39462046029A29
:1008600000F06CFB002F04D03968A14201D100993F
:1008700039607105022400290BDA4042002803DDAB
:1008800004F048FC0460A007FEBD0120800206437E
:10089000E3E70028F8DA04F03DFC04600048FEBD00
:1008A000FFFFFF7F002904DA401C490001D1400806
:1008B0004000704770B40024050C05D110240004DA
:1008C00002D1002921D01124050E01D100020834E3
:1008D000050F01D10001241D850F01D18000A41C4A
:1008E000002801DB4000641C002908D020252E1BB5
:1008F0000D46F540A14000D00121294308430106DF
:100900001B1B000ADB1D02D5002070BC7047DB05F5
:10091000181880180029F8DA401C4900F5D170BC7D
:1009200040084000704710B5002B08DA0024401C36
:10093000614192185B411A4301D14008400010BD4B
:10094000F0B51FB482B005460C0003D0084604F091
:100950008DFB02E004F08AFB203002460090214625
:100960002846FFF7E1FE049B059A04460F4618430C
:100970001143084314D0184610431BD0009840215F
:100980000A1A18460599FFF7DFFE05460E46009A3B
:1009900005990498FFF7C8FE084305D0012004E03C
:1009A0002046394607B0F0BD0020C11705430E436D
:1009B0002C43374300990E986305401A7905E40AE1
:1009C00000220C43FD0A0A3002D500200146E9E767
:1009D0000105101969410C9C0D9D00196941FFF733
:1009E000A2FFDFE770B54B005B0803430BD04B0061
:1009F0005C0D002633466542B341D417AD1AA341BE
:100A000002DB0020014670BD12053018514170BD57
:100A1000FEB500231A461B1A8A4103DB002001465B
:100A200003B0F0BD4A000D0301212D0B0905520D45
:100A30000D43D10702D100186D41521E5110FF31F4
:100A4000FF310131002704463E46384600970191A8
:100A50000246012100200905FFF776FEC319714106
:100A6000F818324684468E464A4161462846611A45
:100A7000904104D36046241A954176461F462419B6
:100A800000986D41401C00903428E1DDF919304692
:100A90007041091BA84103D20022D243134601E052
:100AA0000022134601980105381C7141FFF73BFFF6
:100AB000B6E700000EB5C217C10F5040CA07401874
:100AC0000021054B0293019200910A460B46FFF765
:100AD00037FF03B000BD0000330400004A000903E3
:100AE0000123090B1B0519430A4B10B5520D9A42FD
:100AF00002DA0020014610BD064B34339A4203DC73
:100B00009A1AFFF721FE10BD034BD218FFF70CFE17
:100B100010BD0000FF030000CDFBFFFF10B5002952
:100B200004DB0124E40740428C412146002B04DB16
:100B30001C460123DB075242A341994200D1904257
:100B400010BD0000064C0125064E05E0E36807CC09
:100B50002B430C3C98471034B442F7D3FFF7B4FA58
:100B600080970008A097000800487047F494000898
:100B700010B50446FFF7F8FF0068005DC007C00F1E
:100B800010BD0000FFB5087889B01546FF2805D0D4
:100B9000491C2D2804D00022002407E000240BE08B
:100BA0000122F9E70A235C430419491C0878FF284D
:100BB000F8D1002A00D06442002004902A7801462F
:100BC0002D2A01D02B2A0FD16D1C2D2A02D00022F4
:100BD000049209E00122FBE700260A2233466D1C3D
:100BE00000F032FA381871412F78FF2FF4D10C9AA7
:100BF000A218069202460A4304D0FF23069A9133B4
:100C0000DA4205DA002109980A4606C00DB0F0BDA7
:100C10000024B74AB54D2646079200F061FA0290CB
:100C200006980391002801DA474200E0074639059B
:100C30000020AF4A001C51410191009012E0F807DA
:100C400007D022462B4630460799FFF72BFC064675
:100C5000079122462B4610461946FFF723FC04460F
:100C60000D467F10002FEAD10698019B0028009ABC
:100C70000399029806DAFFF77DFC3246079BFFF7DF
:100C800079FC05E0FFF70EFC3246079BFFF70AFCF4
:100C9000049A002A02D00122D2075140099A03C2C5
:100CA000B4E7FFB591B0002009900025ED432E2058
:100CB0009E685C681F460190B9696D1C1298884750
:100CC0000090396A88470028F6D10098401C0AD065
:100CD0000D20C0018443002E12DD00982B2809D07E
:100CE0002D280DD103E00020C04315B0F0BD012038
:100CF00080020443B9696D1C12988847761E0090E3
:100D000003A9600501D52D2000E02B206A46107351
:100D1000491C0CA80F9102900AE0B9696D1C129849
:100D2000884700900120400204431398761E056016
:100D3000002E02DD00983028EFD0019900988842FB
:100D400046D18020044308E00998401E0990012004
:100D5000400204431399681C0860B9696D1C761E33
:100D60001298884700903028EED031E001998842EF
:100D700005D1200603D480200443761E1EE000988F
:100D800004F0E6FD002826D001204002044307A914
:100D90000F980331761E88420BD200980F99303895
:100DA00008700F98401C0F90200607D50998401E28
:100DB00003E0200602D40998401C0990A00502D542
:100DC0001399681C0860B9696D1C129888470090D7
:100DD000002ECBDC59E0002E57DD0098652801D0AD
:100DE000452852D1A00550D5032000028443B9699B
:100DF0006D1C761E129888470090002E0CDD2B2863
:100E000004D02D2808D1FF2001300443B9696D1C9E
:100E100012988847761E0090E00501D52D2100E04C
:100E20002B21029801700298401C0290019025E04D
:100E30000120400204430EA902980131761E884227
:100E40000ED20098029930380006000E087003D1C7
:100E50000299019881420AD90298401C029006E04A
:100E6000E00501D5234801E0224840420990B969D4
:100E70006D1C12988847009013980560002E04DDC1
:100E8000009804F065FD0028D2D1F96912988847CE
:100E90000F99FF200870029903AA087000200A9099
:100EA0000B900CA90AA8099BFFF76CFEA00502D4C1
:100EB0000120C04319E72420044209D0E00713D1E0
:100EC00038680B9A0A99031D3B60006806C00BE066
:100ED0000B990A98FFF702FC0146E00704D1386835
:100EE000021D3A60006801602846FEE600001440DA
:100EF0000000F03FF1D8FFFF4268002A08D00168E7
:100F00000B78491C002B03D0521E06C018467047B0
:100F10000121C160881E70474268002A0BD0C36857
:100F20000168002B07D183688B4204D0491E521CF4
:100F300006C0002070470020C0437047F7B582B05C
:100F4000029C00272078641C15460197302802D0A7
:100F5000002D15D015E020780127641C782804D0D6
:100F6000582802D0002D09D00BE0002D01D0102D03
:100F700007D1002710252078641C02E0082500E036
:100F80000A250026009610E00099012769430818F9
:100F9000020C294680B2714300908E1838048642B4
:100FA00001D3012001902078641C294600F089F8C3
:100FB0000028E9DA0398002805D0002F01D0641E2C
:100FC00000E0029C04600198002806D004F0A2F81A
:100FD00002210160C81E05B0F0BD0099300408432D
:100FE000F9E700000EB505490291002100910A467B
:100FF0000B460191FFF7A4FC03B000BD33040000D1
:1010000070B5CD0F4A0009030123090B1B051943D5
:101010000B4BED070024520D9A4201DA002070BDFF
:10102000074B34339A4203DC9A1AFFF78DFB02E038
:101030000449511888402C43F1D0404270BD000053
:10104000FF030000CDFBFFFFF0B51FB486B000200A
:101050000090019002900698069980B2049007983B
:10106000090C02040014114307900027089D0998F9
:1010700006913E463C4603900398A9B20204000C38
:10108000039004982D0C1543484300212246FFF796
:101090004BFBC719714110340E46402CECDB38462F
:1010A000029AFFF741FB009A019B8018009059417A
:1010B00002980191103002904028CCDB00980BB0D0
:1010C000F0BD3A2800D23038202302469A43412A04
:1010D00001D310463738884201D30020C0437047FF
:1010E0000EB5054A02920022009213460192FFF7C4
:1010F00027FC03B000BD00003304000010B5034816
:1011000000F09AF9024800F097F910BD440400205D
:101110008C04002010B5054800F08EF9044800F05A
:101120008BF9044800F088F910BD00004C0600203F
:10113000DC0600209406002030B51C25446C2C40B1
:101140000125A540046C6560046863608468102C08
:1011500004D10468A2600468E16003E00468A1604F
:101160000468E26030BD10B50120000300F09CFA75
:101170000120C00300F098FA10BD7047F0B585B0AB
:10118000002700240026002588A18C4803F05AFF80
:1011900006F0EAFC7D20000106F0F2FB002811D1E8
:1011A00087A007F097FE00208849087006F0FCFB36
:1011B00000220121C9030520000700F088FB002060
:1011C00005B0F0BD01E0701C86B28148805D242826
:1011D00008D17F49701C085C472803D1B01C085C0B
:1011E000502801D0192EEEDB142E08DD002201213B
:1011F000C9030520000700F06AFB0020E0E7304645
:1012000005F07CF9002808D100220121C90305203E
:10121000000700F05CFB0020D2E741216D48FEF79B
:10122000DAFFB01D85B288E06948405D2C2803D103
:10123000781CC7B200247EE03B0003F046FF0D7A25
:10124000081219242B363E49545F6A727A00092C21
:1012500006D85F48425D2046611CCCB25E490A5404
:1012600068E0012C03D85A48405D5B49887261E010
:101270000B2C07D85648425D2046611CCCB256491B
:101280000B310A5456E0012C03D85148405D5249B5
:10129000C8754FE00C2C07D84D48425D2046611CB4
:1012A000CCB24D4918310A5444E0012C04D84848C6
:1012B000415D4948203041713CE0052C07D8444845
:1012C000425D2046611CCCB2434926310A5431E0CC
:1012D000052C07D83E48425D2046611CCCB23E49F1
:1012E0002C310A5426E0062C07D83948425D2046A6
:1012F000611CCCB2384932310A541BE0052C07D8A6
:101300003348425D2046611CCCB2334939310A541E
:1013100010E0012C04D82E48415D2F482030C177C1
:1013200008E0012C04D82A48415D2B484030017068
:1013300000E000BF00BF681C85B2802D00DA73E7B3
:101340002548807A562813D100220121C90305209F
:10135000000700F0BCFA41211F48FEF73CFF0022C5
:101360000121C9030520000700F0B1FA002027E79A
:101370000122D1030520000700F0A9FA07F0D0FDF3
:1013800006F0F6F90190FFF781F900221346039168
:101390000290FFF78FF901D1022011E70122D1035A
:1013A0000520000700F093FA012009E74154244D7D
:1013B00059475053504F533D330D000091010020C9
:1013C00054494D454F55540D0A000000200000209F
:1013D00011010020540000207D00002070B504465B
:1013E00000252520005D022803D00420E0630125AC
:1013F00020E0206800680E2188432168086020688A
:10140000006840084000216808601C21606C0840AA
:1014100001218140206C416001212520015500BF40
:1014200000212420015500BFA06B002802D02046D7
:10143000A16B8847284670BD70B50446206C0568CE
:10144000206806681C20616C014004208840284008
:1014500000281DD004203040002819D020680068E2
:1014600020210840002805D1206800680421884315
:10147000216808601C21606C084004218140206CB8
:101480004160206B00285AD02046216B884756E0E7
:101490001C20616C0140022088402840002825D093
:1014A00002203040002821D0206800682021084018
:1014B000002808D1206800680A2188432168086054
:1014C0000121252001551C21606C0840022181402A
:1014D000206C416000BF00212420015500BFE06A5C
:1014E00000282CD02046E16A884728E01C20616C47
:1014F0000140082088402840002820D008203040A3
:1015000000281CD0206800680E21884321680860EC
:101510001C21606C084001218140206C4160012049
:10152000E06301212520015500BF00212420015541
:1015300000BF606B002802D02046616B884770BDF9
:1015400070B50446002C01D1012070BD244A2168E9
:10155000881A1421FEF7CCFD80006064204808380A
:101560002064022125200155206805681D4805409A
:10157000E168A06808432169084361690843A169DB
:101580000843E1690843216A084305432068056070
:1015900001218903A068884217D011487830806AF9
:1015A0001C22616C11400F228A4090430C49783113
:1015B00088621C22616C114060688840084978315B
:1015C000896A08430649783188620020E063012176
:1015D000252001550021242001550020B5E70000F9
:1015E000080002400F80FFFFF8B504460D4616467E
:1015F0001F460020009000BF2420005D012801D17B
:101600000220F8BD01212420015500BF2520005DE6
:1016100001282DD10221252001550020E0632068FA
:10162000006840084000216808603B463246294671
:101630002046FFF781FD206B002806D02068006857
:101640000E210843216808600BE02068006804212F
:10165000884321680860206800680A2108432168DF
:10166000086020680068012108432168086006E0DE
:1016700000BF00212420015500BF022000900098E7
:10168000BFE770B5044600F029F906462546681CF8
:10169000002800D06D1C00BF00F020F9801BA8427C
:1016A000FAD370BD7047000010B504460548406984
:1016B0002040002804D0034844612046FFF7F2FF91
:1016C00010BD00000004014070B503460022002454
:1016D0000020DAE0012696400D6835402C46002CAB
:1016E00077D04D68022D02D04D68122D15D1D50846
:1016F000AE001D462035A8595507EE0E0F25B54002
:101700000646AE4330465607F60E0D69B5402843EF
:10171000D508AD001E46203670514D68012D08D009
:101720004D68022D05D04D68112D02D04D68122D47
:1017300018D1986856000325B5400646AE4330469A
:101740005600CD68B54028439860586801259540FB
:101750000646AE43304610264D6835402D0995406B
:1017600028435860186856000325B5400646AE4326
:1017700030460D79AD07AD0F5600B54028431860CF
:10178000D86856000325B5400646AE43304656009D
:101790008D68B5402843D860012636074D6835402E
:1017A000B54271D13C4D6D6B012635433A4E7563A0
:1017B0003A4D9608B600A85995072E0F0F25B5404B
:1017C0000646AE43304605252D07AB4202D1002523
:1017D00015E059E0324DAB4201D101250FE0314D0A
:1017E000AB4201D102250AE02F4DAB4201D10325C6
:1017F00005E02E4DAB4201D1052500E006259607F8
:10180000360FB5402843254D9608B600A851284DFF
:1018100028680546A5432846012636044D6835400C
:10182000B54202D1054625432846214D2860686807
:101830000546A5432846012676044D683540B54245
:1018400002D1054625432846194D6860A86805461B
:10185000A5432846012636054D683540B54202D1DC
:10186000054625432846124DA860E8680546A5436D
:101870002846012676054D683540B54202D1054619
:10188000254328460A4DE860521C0D68D540002DBE
:1018900000D01FE770BD00000010024008000140AA
:1018A0000004005000080050000C0050001C0050C4
:1018B00000040140024613690B40002B01D00120B7
:1018C00000E00020704742694A4042617047002AA8
:1018D00001D0816100E0816270470000014800682A
:1018E000704700004800002002464120805C20280C
:1018F0002FD100BF4020805C012801D10220704719
:1019000001234020835400BF2423412083541068C6
:1019100000684008400013681860106800680123E0
:101920001B03984313681860106800680843136825
:10193000186010680068012318431368186020239A
:101940004120835400BF00234020835400BF002067
:10195000D5E70220D3E710B502460B464120805C54
:1019600020282ED100BF4020805C012801D1022018
:1019700010BD01244020845400BF242441208454FD
:101980001068006840084000146820601068016812
:101990000F2424020846A0430146180201431068A0
:1019A000016010680068012420431468206020242E
:1019B0004120845400BF00244020845400BF0020F4
:1019C000D6E70220D4E7000010B50446002C01D170
:1019D000012010BD4120005D002805D100214020DC
:1019E0000155204600F05AF8242141200155206875
:1019F000006840084000216808600F2109066068FF
:101A0000884321680861206880680121C9038843F0
:101A100021688860E068012806D10121C903A06817
:101A200008432168886005E021218902A0680843F5
:101A300021688860E068022802D18002216848603D
:101A40002068406814490843216848602068C068DD
:101A50000121C90388432168C8606169206908437E
:101A6000A169090208432168C860216AE069084346
:101A70002168086020680068012108432168086027
:101A800000206064202141200155002020630021B6
:101A90004220015500209CE70080000210B586B06E
:101AA0000446142101A8FEF796FB2D4920688842C0
:101AB00024D100BF2B48C06A022108432949C862CB
:101AC0000846C06A02210840009000BF00BF032002
:101AD0000002019012200290012003900320049044
:101AE0000420059001A92048FFF7EEFD1D48806BFA
:101AF0000121490508431B4988632EE01B492068E2
:101B000088422AD11748806B01218905084315496D
:101B1000886300BF0846C06A022108431149C862B1
:101B20000846C06A02210840009000BF00BF0320A1
:101B300040030190122002900120039003200490A2
:101B40000520059001A90848FFF7BEFD0548806BF8
:101B50000121890508430349886306B010BD0000D0
:101B600000540040001002400004005000580040A3
:101B700002480068401C0149086070474800002086
:101B800010B5002408480068402108430649086051
:101B9000002000F00BF8002801D0012401E000F043
:101BA0001FF8204610BD00000020024070B504461A
:101BB00000257D21C90009480068FEF799FA06460C
:101BC00001F092F8002801D0012504E0002221460E
:101BD000501E00F021F8284670BD00004C00002087
:101BE0000648406B01210843044948630846806B5E
:101BF000090408430149886370470000001002404F
:101C000000BFC206D20E01219140024A116000BFFE
:101C10007047000000E100E070B504460D4616462E
:101C20002946204602F058FA70BD000000BF00BFF0
:101C300000BF00BF00BFBFF34F8F00BF00BF00BF9A
:101C400006480749C86000BF00BF00BFBFF34F8F01
:101C500000BF00BF00BF00BF00BFFDE70400FA05E2
:101C600000ED00E0F8B50446202120680840202857
:101C700004D089012068084088427DD12021206855
:101C80000840202800D100BF0121C9022068084077
:101C9000884200D100BF00279148806B01210907CD
:101CA0000840002805D18E48806B08438C49886322
:101CB00001278C480068FF2101310840002816D117
:101CC00088480068084387490860FFF707FE064612
:101CD00006E0FFF703FE801B642801D90320F8BD4E
:101CE00080480068FF21013108400028F1D07C487D
:101CF0000568032109050D4060680840A84203D12A
:101D0000A0680840A8420ED003210904606808407A
:101D1000884208D17248006801214904084088427D
:101D200001D10120DBE76E4840300069032109043E
:101D300008400546002D4AD060680840A84204D0FB
:101D400020212068084020280BD003210904A06826
:101D50000840A8423BD00121C902206808408842BF
:101D600035D15F48403000690321090488430546A6
:101D70005B484030006900E052E00121C90408439B
:101D8000574940310861084600690121C904884368
:101D9000534940310861084605618015284089157E
:101DA000884214D1FFF79AFD064607E0FFF796FD3B
:101DB000801B4D49884201D9032090E748484030B4
:101DC0000069012149020840400A0028EED000BF06
:101DD00000BF032109046068084088420AD14048D6
:101DE0000068090188430322120561681140084315
:101DF0003B49086000BF3A484030006903221204A2
:101E000061681140084336494031086100BF012F25
:101E100005D13348806B890588433149886300BF09
:101E20002078C007C00F002809D02D484030C06876
:101E300080088000E168084329494031C8600221D8
:101E400020680840022809D125484030C0680C218C
:101E500088432169084322494031C8600421206831
:101E6000084004280AD11E484030C0680321890276
:101E70008843616908431A494031C86008212068D5
:101E8000084008280AD116484030C06803210903D9
:101E90008843A169084312494031C8604021206845
:101EA0000840402809D10E484030C06809058843E1
:101EB000216A08430A494031C860802120680840EF
:101EC00080280AD106484030C0680321890488432D
:101ED000E169084302494031C8600020FFE6000084
:101EE000001002400070004088130000F8B504465E
:101EF0000D46002C01D10120F8BD79480068C007CB
:101F0000C00FA8420ED2764800684008400028431F
:101F10007349086008460068C007C00FA84201D096
:101F20000120E9E7022120680840022807D16D4816
:101F3000C068F0218843A16808436A49C8602078D6
:101F4000C007C00F00284CD06068022809D165483E
:101F50000068012149040840400C002824D10120D8
:101F6000CAE76068032809D15E4800680121490674
:101F70000840400E002817D10120BDE76068012805
:101F800008D15848006804210840800800280BD177
:101F90000120B1E753480068012149020840400A86
:101FA000002801D10120A7E74E48C06880088000C2
:101FB000616808434B49C860FFF790FC06466068BB
:101FC00002280FD107E0FFF789FC801B46498842B1
:101FD00001D9032090E74348C0680C210840082835
:101FE000F1D134E0606803280FD107E0FFF776FCF9
:101FF000801B3D49884201D903207DE73948C068EC
:102000000C2108400C28F1D121E0606801280FD193
:1020100007E0FFF763FC801B3349884201D90320A6
:102020006AE73048C0680C2108400428F1D10EE06E
:1020300007E0FFF753FC801B2B49884201D903209E
:102040005AE72848C0680C2108400028F1D12448EC
:102050000068C007C00FA8420ED921480068400898
:10206000400028431E49086008460068C007C00FAA
:10207000A84201D001203FE704212068084004283D
:1020800008D11848C068072109028843E16808435D
:102090001449C860082120680840082809D111485F
:1020A000C0680721C90288432169C90008430D4956
:1020B000C86000F049F80B49C968F02211400909CD
:1020C0000A4A515CC8400A4908600020FFF76EFDCB
:1020D0000746002F01D038460EE700200CE700002D
:1020E0000020024000100240881300000092000807
:1020F0004C00002001480068704700004C000020A0
:1021000000B5FFF7F7FF0549C96807221202114021
:10211000090A034A515CC84000BD0000001002409B
:102120001092000800B5FFF7E5FF0549C9680722CE
:10213000D2021140C90A034A515CC84000BD0000E8
:102140000010024010920008FEB52E48C7680C200F
:102150003840002845D0042804D008280CD00C288A
:102160003ED10BE02748006810210840002801D02C
:10217000254C00E0254C41E0254C3FE00F20800439
:102180003840800C23490E5C032080053840800DC8
:10219000401C01901B48C068012109040840002828
:1021A00007D01B49714308460199FDF7A1FF054679
:1021B00014E01448006810210840002807D0124994
:1021C000714308460199FDF793FF054606E00F4964
:1021D000714308460199FDF78BFF05462C460DE03B
:1021E00000BF08484068072149030840400B0090A1
:1021F0000098401C01218140CC0300BF00BF204655
:10220000FEBD00000010024000093D000024F40063
:1022100000127A0018920008FEB50446002C01D185
:102220000120FEBDF848C6680C210E40C768012198
:1022300009040F402078C007C00F002872D0082E74
:1022400004D00C2E0FD1084687420CD1EE4800680E
:10225000012149040840400C002863D06068002830
:1022600060D10120DDE700BF0121090460688842D8
:1022700005D1E54800680843E349086027E00521E7
:102280000904606888420ED1DF4800680121890492
:102290000843DD4908600846006801210904084335
:1022A000D949086013E0D84800680121090488432F
:1022B000D5490860084600680121090408400090DB
:1022C00000BFD148006889008843CF49086000BF3B
:1022D0006068002813D0FFF701FB054606E0FFF712
:1022E000FDFA401B642801D903209AE7C64800681C
:1022F000012149040840400C0028F0D012E0FFF70B
:10230000EDFA054606E0FFF7E9FA401B642801D91B
:10231000032086E7BC480068012149040840400CBE
:102320000028F0D102212068084002287AD1E06814
:102330000290042E03D00C2E34D1002F32D1B2489B
:102340000068042108408008002804D00298002872
:1023500001D1012065E7AC4840681F21090288438C
:10236000216909020843A849486008460068092114
:10237000884302990843A4490860FFF7E5FEA24993
:10238000C968F02211400909A04A515CC840A0491F
:1023900008600020FFF70AFC01900198002841D056
:1023A00001983EE70298002824D097480068092148
:1023B00088430299084394490860FFF78FFA05465D
:1023C00006E0FFF78BFA401B022801D9032028E71B
:1023D0008D4800680421084080080028F1D08A4810
:1023E00040681F2109028843216909020843864980
:1023F000486017E08448006840084000824908604F
:10240000FFF76CFA054606E0FFF768FA401B022862
:1024100001D9032005E77C480068042108408008B2
:102420000028F1D1102120680840102867D1002E23
:1024300036D17548006849010840400A002804D098
:10244000E069002801D10120EBE66F4840680721D0
:1024500049038843616A08436B49486008464068FD
:102460000002000A218C0906084367494860606A37
:10247000400B401C01218140C8036349C968F02218
:1024800011400909614A515CC84061490860002057
:10249000FFF78CFB0190019800284BD00198C0E613
:1024A000E06900282CD058480068FF21013108431A
:1024B00055490860FFF712FA054606E0FFF70EFAE5
:1024C000401B022801D90320ABE64F4800680121D8
:1024D00049020840400A0028F0D04B4840680721D4
:1024E00049038843616A0843474948600846406891
:1024F0000002000A218C090608434349486019E09C
:1025000041480068FF21013188433F490860FFF7D7
:10251000E5F9054606E0FFF7E1F9401B022801D97D
:1025200003207EE638480068012149020840400A3D
:102530000028F0D1082120680840082839D16069B6
:1025400000281BD0304840300069012108432E4943
:1025500040310861FFF7C2F9054606E0FFF7BEF912
:10256000401B022801D903205BE627484030006960
:102570000221084040080028F0D01AE022484030EC
:10258000006940084000204940310861FFF7A6F982
:10259000054606E0FFF7A2F9401B022801D90320F7
:1025A0003FE61948403000690221084040080028F1
:1025B000F0D1042120680840042879D1002000903F
:1025C0001148806B89060840002806D10E48806BB0
:1025D00008430D498863012000900E480068FF21E0
:1025E0000131084000281ED10A4800680843094903
:1025F0000860FFF773F905460EE0FFF76FF9401B1F
:10260000642809D903200CE600100240009200085B
:102610004C00002000700040B1480068FF210131EB
:1026200008400028E9D000BFFF210131A06888429E
:1026300005D1AC4800690843AA49086130E0A068A8
:1026400000280DD1A7480069FF2101318843A54921
:1026500008610846006909158843A24908611FE01E
:1026600005210902A06888420DD19E480069012118
:10267000890208439B490861084600698915084397
:10268000984908610CE097480069FF2101318843AF
:102690009449086108460069091588439149086111
:1026A00000BFA068002815D0FFF718F9054608E01C
:1026B00031E0FFF713F9401B8B49884201D9032011
:1026C000AFE588480069012149020840400A002816
:1026D000EFD013E0FFF702F9054607E0FFF7FEF839
:1026E000401B8149884201D903209AE57D48006951
:1026F000012149020840400A0028EFD10098012832
:1027000008D178484038806B012109078843754912
:102710004039886300BF202120680840202852D11A
:10272000A06900282BD000BF6E4840388068012186
:1027300008436C49403988600846406B01210843D2
:102740006849403948636948006A012149030843E0
:102750006649086200BFFFF7C1F8054606E0FFF7CB
:10276000BDF8401B022801D903205AE55D484038D6
:1027700080680221084040080028F0D023E000BF14
:1027800058484038806840084000564940398860C1
:102790005648006A0121490388435449086200BF32
:1027A000FFF79CF8054606E0FFF798F8401B022863
:1027B00001D9032035E54B484038806802210840A4
:1027C00040080028F0D1A06A00284CD00C2E69D017
:1027D000A06A022848D14348403800680121090610
:1027E0008843404940390860FFF778F8054606E01D
:1027F000FFF774F8401B022801D9032011E539487E
:1028000040380068012149060840400E0028EFD1F9
:10281000216BE06A0843616B084332494039C9685B
:10282000FD221204914308432E494039C8600846EE
:1028300000680121090608432A4940390860FFF76A
:102840004DF8054606E0FFF749F8401B022801D97C
:102850000320E6E423484038006801214906084087
:10286000400E0028EFD038E01E48403800680121B3
:10287000090688431B4940390860FFF72FF80546D1
:1028800006E0FFF72BF8401B022801D90320C8E41B
:10289000144840380068012149060840400E0028CD
:1028A000EFD11AE0A06A012800D1BAE40D484038FF
:1028B000C768012000043840E16A88420BD10F202C
:1028C00080043840216B884205D1032080053840C0
:1028D000616B884201D00120A3E40020A1E4000044
:1028E00000700040401002408813000000000140CA
:1028F000704710B50446002C01D1012010BD606A5C
:10290000002800D100BF0021A1625120005D0028F5
:1029100004D150200155204600F034F80221512006
:102920000155206800684021884321680860A1683B
:1029300060680843E1680843216908436169084306
:1029400001225202A16911400843E1690843216A4A
:102950000843A16A084321680860A069000C0421AB
:102960000840616A0843216848602068C069910096
:1029700088432168C861002060650121512001550C
:102980000020BBE710B586B00446142101A8FDF76E
:1029900022FC3049206888425AD12F48406B891464
:1029A00008432D49486300BF0846C06A0121084317
:1029B0002949C8620846C06AC007C00F009000BF1E
:1029C00000BFE0200190022002900020039003202D
:1029D00004900020059001A905200007FEF774FE71
:1029E0001E481F4908600120486000211C48816082
:1029F000C16080210161002141618161C161016289
:102A0000FEF79EFD002801D0FEF7B7FB00BF14487B
:102A1000E064846200BF114814301249086001204C
:102A2000486010210F4881600021C1608021016150
:102A3000002141618161C1610162FEF781FD0028D1
:102A400001D0FEF79AFB00BF0648A064846200BF75
:102A500006B010BD00300140001002401C000240D2
:102A6000440400208C04002070477047F0B585B006
:102A700004460E4617461D460020019000BF502018
:102A8000005D012802D1022005B0F0BD01215020D7
:102A9000015500BF5120005D0290606803900298CC
:102AA00001280DD0FF2105310398884205D1A06887
:102AB000002802D10298042802D00220019081E06F
:102AC000002E03D0002F01D0002D02D10120019053
:102AD00078E05120005D042802D0052151200155E5
:102AE000002060652663A586E586A763A587E58740
:102AF000206460645120005D042806D13548E16CF3
:102B000008633548E16CC86205E03448E16C08634D
:102B10003348E16CC8623348E16C48630020E16CE3
:102B20008863E38F206801460C31A26BE06C009053
:102B3000FEF75AFD002809D0606D1021084360653A
:102B4000012001900121512001553BE0206840689F
:102B500001210843216848600020A16C0863A16C32
:102B6000C862A16C4863A16C8863E38E206802464A
:102B70000C32216BA06C0090FEF736FD002809D0C6
:102B8000606D1021084360650120019001215120F2
:102B9000015517E02068006840210840402804D013
:102BA0002068006808432168086020684068202188
:102BB0000843216848602068406802210843216872
:102BC000486000BF00BF00215020015500BF0198A0
:102BD0005AE70000AF410008D9410008CB41000886
:102BE000BB42000887410008F8B504460E4615466A
:102BF0000020009000BF5020005D012801D102207C
:102C0000F8BD01215020015500BF5120005D012871
:102C100002D00220009056E0002E01D0002D02D1FB
:102C2000012000904FE003215120015500206065F4
:102C30002663A586E586A06360642064A087E0879C
:102C40000121C903A068884205D1206800684910A5
:102C50000843216808601F48A16C08631E48A16CE6
:102C6000C8621E48A16C48630020A16C8863E38E93
:102C700027683A460C32216BA06CFEF7B5FC0028A1
:102C800009D0606D1021084360650120009001218A
:102C90005120015517E02068006840210840402875
:102CA00004D02068006808432168086020684068F4
:102CB00020210843216848602068406802210843B9
:102CC0002168486000BF00BF00215020015500BFAF
:102CD000009895E7BD4100083B4200088741000885
:102CE000704770477047704770B504462546681EA8
:102CF0000949884201D901200CE0681E0749486152
:102D00000321081F01F0E8F9002004498861072029
:102D10000861002070BD0000FFFFFF0000E000E040
:102D200030B5024600BF3820805C012801D1022066
:102D300030BD01253820855400BF02253920855437
:102D4000106843681068846870251846A8430346D5
:102D50000868034380252046A84304464868044386
:102D6000106843601068846001253920855400BFD5
:102D700000253820855400BF0020D9E710B504464F
:102D8000002C01D1012010BD3920005D002805D1A3
:102D9000002138200155204600F00CF8022139208E
:102DA0000155211D206801F01DFC0121392001552C
:102DB0000020E8E710B586B00446142101A8FDF70D
:102DC0000AFA01218907206888422AD11F48806BAE
:102DD000012108431D49886300BF0846C06A0121DC
:102DE00008431A49C8620846C06AC007C00F00906D
:102DF00000BF00BF0120019002200290039000203C
:102E000004900220059001A905200007FEF75CFC54
:102E1000002211460F20FEF7FFFE0F20FEF7F0FE06
:102E200011E00B49206888420DD10848806B1021C1
:102E3000084306498863002211461120FEF7ECFE84
:102E40001120FEF7DDFE06B010BD000000100240AC
:102E50000010004001460868C068012318430B6851
:102E6000D860086880684207520F062A05D00868B3
:102E70000068012318430B681860002070470000A9
:102E800001460868C068400840000A68D06000BF7A
:102E90000868006A064A1040002805D108680068E2
:102EA000400840000A68106000BF00207047000022
:102EB00011110000F8B504460D4600BF3820005D32
:102EC000012801D10220F8BD01213820015500BFA1
:102ED00002213920015520688668772130468843D1
:102EE0000646FF2109023046884306462068866070
:102EF0002868502834D00CDC202851D004DC00286D
:102F00004CD0102852D14AE030284AD040284DD128
:102F10003AE060282ED0702807D001210903401A1A
:102F200002D0401A42D10DE041E0EB686A68A9681E
:102F3000206801F09EFB20688668772006432068A1
:102F4000866034E0EB686A68A968206801F091FB4C
:102F5000206880680121890308432168886026E091
:102F6000EA686968206801F09EFB5021206801F042
:102F70008EFB1CE0EA686968206801F0E1FB6021D3
:102F8000206801F084FB12E0EA686968206801F0BB
:102F90008AFB4021206801F07AFB08E000BF00BFF7
:102FA00000BF2968206801F072FB00E000BF00BF8D
:102FB00001213920015500BF00213820015500BFF3
:102FC000002080E710B504460D48844217D1002147
:102FD00000F0D0F9002812D00020012189074863B1
:102FE0004862074909684862801E05490968086106
:102FF000401E03490968086101200249087010BD9C
:10300000D404002028000020F8B504460D461646DA
:1030100000BF3820005D012801D10220F8BD012148
:103020003820015500BF022139200155002E12D150
:10303000EB686A682968206801F04EFB20688069A7
:103040000C2188432168886120688069A968084349
:10305000216888613FE0042E14D1EB686A68296812
:10306000206801F086FB206880690321890288437B
:103070002168886120688069A9680902084321687D
:10308000886128E0082E12D1EB686A6829682068F8
:1030900001F093FB2068C0690C2188432168C86156
:1030A0002068C069A96808432168C86113E0EB681B
:1030B0006A682968206801F0A3FB2068C0690321C1
:1030C000890288432168C8612068C069A96809022B
:1030D00008432168C86101213920015500BF002142
:1030E0003820015500BF002098E710B50446002C99
:1030F00001D1012010BD3920005D002805D100213B
:1031000038200155204600F00CF8022139200155E5
:10311000211D206801F066FA0121392001550020A7
:10312000E8E7704770B504460D46002D06D0042D23
:103130000BD0082D10D00C2D1CD114E02068C068D5
:10314000022108432168C86015E02068C068042196
:1031500008432168C8600EE02068C0680821084361
:103160002168C86007E02068C06810210843216812
:10317000C86000E000BF00BF01222946206801F0BE
:1031800067FA206880684607760F062E05D020680B
:1031900000680121084321680860002070BD10B557
:1031A00004462068006902210840400800281CD01D
:1031B0002068C06808404008002816D0481F2168D1
:1031C000086101202076206880698007800F002830
:1031D00003D02046FFF7F6FE05E0204600F09DF8FC
:1031E000204600F09BF8002020762068006904212A
:1031F0000840800800281DD02068C068084080086A
:10320000002817D0C8432168086102202076206872
:103210008069032109020840002803D02046FFF7F7
:10322000D1FE05E0204600F078F8204600F076F860
:10323000002020762068006908210840C008002886
:103240001CD02068C0680840C008002816D0C843B9
:1032500021680861042020762068C0698007800FFB
:10326000002803D02046FFF7ADFE05E0204600F021
:1032700054F8204600F052F80020207620680069BB
:1032800010210840000900281DD02068C0680840AF
:103290000009002817D0C84321680861082020765B
:1032A0002068C069032109020840002803D0204695
:1032B000FFF788FE05E0204600F02FF8204600F0DA
:1032C0002DF80020207620680069C007C00F01217A
:1032D0004840484000280CD02068C068084048405A
:1032E0004840002805D0C81E21680861204600F02B
:1032F00017F82068006940210840800900280BD099
:103300002068C06808408009002805D0C8432168AB
:103310000861204600F048F810BD70477047000073
:1033200010B504460948844202D1002008490870BB
:103330000848844209D1FFF7A3FD6423162206A1A1
:103340000B4800F09DFBFEF771FC10BDD40400207B
:103350002800002010050020434F4E4E454354499D
:103360004F4E2054494D454F55540D0A0000000062
:103370004C05002002460020002906D0042907D071
:10338000082908D00C290CD108E01368586B09E013
:103390001368986B06E01368D86B03E01368186C29
:1033A00000E000BF00BF70477047704770470000E3
:1033B00010B5044620680068FF2121318843216848
:1033C00008602068806840084000216888602068A4
:1033D000806840210840402827D1206880688843C1
:1033E00021688860E06E00280BD01748E16E886382
:1033F000E06EFDF7F3FF002824D0E06E816B884774
:1034000020E000215A200153002060650F20216830
:1034100008622068806908210843216888612020AB
:10342000A0672046FFF7C2FF0CE000215A2001539D
:10343000002060650F20216808622020A0672046D8
:10344000FFF7B4FF002010BD1B4A000870470000C2
:10345000FEB504462068C56920680668206887684C
:103460002807000F0190019800280ED12020284045
:1034700000280AD020203040002806D0206E0028E6
:1034800002D02046216E8847FEBD019800287DD0DD
:10349000F807C00F002804D1FF2021303040002859
:1034A000F5D0E807C00F00280BD0FF2001303040D6
:1034B000002806D0012021680862E06F012108433E
:1034C000E0670220284000280AD0F807C00F002833
:1034D00006D0022021680862E06F04210843E067FB
:1034E0000420284000280AD0F807C00F002806D082
:1034F000042021680862E06F02210843E067082089
:10350000284000280ED020203040002803D1F807A2
:10351000C00F002806D0082021680862E06F08214B
:103520000843E067E06F002846D0202028400028AC
:1035300009D020203040002805D0206E002802D07D
:103540002046216E8847E06F009020688068402107
:103550000840402804D0082100980840002826D0C0
:10356000204601F093FA20688068402108404028F6
:1035700019D120688068884321688860E06E00283F
:103580000DD02548E16E8863E06E00E015E0FDF7A0
:1035900025FF002810D0E06E816B88470CE02046A4
:1035A000FFF754FF08E02046FFF750FF04E02046F5
:1035B000FFF74CFF0020E06766E701200005284088
:1035C00000280CD0012080053840002807D00120B9
:1035D0000005216808622046FFF7E7FE54E78020D7
:1035E000284000280AD080203040002806D0606E95
:1035F000002802D02046616E884745E740202840D9
:10360000002807D040203040002803D0204601F099
:103610004FFA39E700BF37E7B149000810B5044653
:10362000002C01D1012010BDA069002800D000E0CD
:1036300000BF606F002805D1002170200155204691
:1036400000F02CF8242060672068006840084000E3
:1036500021680860204601F0B1FA012800D1E2E7B4
:10366000606A002802D0204601F0F1F82068406826
:103670000921C902884321684860206880682A219E
:103680008843216888602068006801210843216818
:103690000860204601F054F9C5E7000010B586B077
:1036A0000446142101A8FCF796FD6249206888426F
:1036B00055D16148406B0121890308435E49486345
:1036C00000BF0846C06A022108435B49C862084639
:1036D000C06A02210840009000BF00BF4020019056
:1036E0000220029000200390012004900020059009
:1036F00001A95248FDF7E8FF8020019002200290C6
:1037000001200390032004900020059001A94B485C
:10371000FDF7DAFF4A484B49086003204860102152
:10372000484881600021C160802101610021416120
:103730008161C1610162FDF703FF002801D0FDF73F
:103740001CFD00BF3F48A066846200BF00221146F6
:103750001B20FEF761FA1B20FEF752FA68E03A4997
:103760002068884264D13448806B012149040843B1
:103770003149886300BF0846C06A012108432E49C9
:10378000C8620846C06AC007C00F009000BF00BFF3
:103790000C2001900220029000200390032004904E
:1037A0000420059001A905200007FDF78DFF24489E
:1037B0003C3026490860042048601021234881607D
:1037C0000021C16080210161002141618161C161ED
:1037D0000162FDF7B5FE002801D0FDF7CEFC00BF69
:1037E0001A48A066846200BF154814301849086062
:1037F00004204860002116488160C1608021016179
:10380000002141618161C1610162FDF799FE0028DB
:1038100001D0FDF7B2FC00BF0D48E066846200BF36
:10382000002211461C20FEF7F7F91C20FEF7E8F9EC
:1038300006B010BD003801400010024000040050E6
:10384000440002404C060020004400409406002042
:10385000DC06002010B50346986F20287DD1002992
:1038600001D0002A01D1012010BD01242403986851
:10387000A04208D11869002805D1C807C00F002848
:1038800001D00120F0E700BF7020C05C012801D109
:103890000220E9E701247020C45400BF5965582074
:1038A000C2525A20C2520020186600BF24039868F2
:1038B000A0420AD11869002803D1294C5C20C452C7
:1038C00024E0FF245C20C45220E0986800280AD13C
:1038D0001869002803D1FF245C20C45216E07F241D
:1038E0005C20C45212E0012424079868A0420AD147
:1038F0001869002803D17F245C20C45206E03F24CD
:103900005C20C45202E000245C20C45200BF0020AE
:10391000D8672220986718688068012420431C68B3
:10392000A060012424039868A04205D118690028EA
:1039300002D10C48186601E00B48186600BF00244D
:103940007020C45400BF18680068FF24213420434D
:103950001C682060002087E7FFE7022084E7000062
:10396000FF010000E34A00084F4B000810B5044671
:103970003B4884424BD13B483B490988405C0A287C
:1039800012D139480088401E3649085C0D280BD1F9
:1039900035480088801E085C4B2805D132480088D5
:1039A000C01E085C4F2803D02F4800887F2809DB01
:1039B00000202D49088001202C4908702848FFF775
:1039C000F7FC24E0274828490988405C2C2814D1BA
:1039D00025480088401E2349085C2C280DD11F2053
:1039E000214A1288885420480088401C1E490880BB
:1039F0002C211C481C4A128881541B480088401CFA
:103A00001949088002201949087004F08FF81848F5
:103A1000844223D1174818490988405C0A2806D1F6
:103A200015480088401E1349085C0D2803D0124831
:103A30000088802808D100200F49088001200F4904
:103A4000087005F009FA09E00B480088401C0A4993
:103A5000088002200949087005F0FEF910BD000039
:103A6000CC050020110100201E00002020000020B5
:103A70004C0500201102002022000020240000201C
:103A8000FFB583B004460D461746606F202875D1F8
:103A9000002D01D0002F02D1012007B0F0BD01217F
:103AA0000903A068884208D12069002805D1E807E9
:103AB000C00F002801D00120EFE700BF7020005D9B
:103AC000012801D10220E8E701217020015500BF43
:103AD0000020E06721206067FDF700FF0190502083
:103AE00007535220075301210903A068884205D1DA
:103AF0002069002802D10026029502E02E4600200F
:103B0000029021E006980090002280212046019B2F
:103B100001F042FA002801D00320BEE7002E09D1AF
:103B200002980088C005C00D216888620298801C38
:103B3000029003E0307821688862761C5220005B96
:103B4000401E81B2522001535220005B0028D9D17F
:103B500006980090002240212046019B01F01CFAAB
:103B6000002801D0032098E72020606700BF0021D3
:103B70007020015500BF00208FE7FFE702208CE78F
:103B800070B504460E461546606F20285BD1002EA6
:103B900001D0002D01D1012070BD01210903A068D1
:103BA000884208D12069002805D1F007C00F0028FD
:103BB00001D00120F0E700BF7020005D012801D195
:103BC0000220E9E701217020015500BFE664502082
:103BD0000553522005530020E06721206067A06E46
:103BE000002820D01948A16EC8621948A16E086348
:103BF0001848A16E48630020A16E886323681A46A6
:103C000028322B46E16CA06EFDF7EEFC00280AD0AE
:103C10001020E06700BF00217020015500BF202068
:103C200060670120B8E740202168086200BF0021DA
:103C30007020015500BF20688068802108432168FA
:103C400088600020A8E70220A6E70000454A000897
:103C50007F4A0008C94900080649884202D100216C
:103C6000054A11700549884202D10021044A1170A9
:103C700070470000CC050020210000204C050020EA
:103C800025000020704700BFFEE7000008B500BF18
:103C90000E48006B012108430C4908630846006B7D
:103CA000C007C00F009000BF00BF002211460A20CD
:103CB000FDF7B2FF0A20FDF7A3FF002211460B20FB
:103CC000FDF7AAFF0B20FDF79BFF08BD0010024087
:103CD00000B587B0142102A8FCF77DFA00BF474861
:103CE000C06A042108434549C8620846C06A0421E5
:103CF0000840019000BF00BF00BF4048C06A80215B
:103D000008433E49C8620846C06A802108400190C5
:103D100000BF00BF00BF3948C06A012108433749CE
:103D2000C8620846C06AC007C00F019000BF00BF4C
:103D300000BF0846C06A022108433049C8620846ED
:103D4000C06A02210840019000BF00BF00222C4938
:103D500005200007FDF7BBFD00222A492A48FDF790
:103D6000B6FD0122052109020805FDF7B0FD244832
:103D700002900120039000200490059002A90520E4
:103D80000007FDF7A1FC1F480290012003900020CE
:103D90000490059002A91C48FDF796FC0120C00381
:103DA00002901A4803900020049002A91648FDF7DB
:103DB0008BFC052000020290012003900220049059
:103DC0000020059002A905200007FDF77DFC0120D9
:103DD000000302900D4803900020049002A90520E2
:103DE0000007FDF771FC002211460720FDF714FFC4
:103DF0000720FDF705FF07B000BD000000100240DE
:103E0000128A00001314000000040050000011107A
:103E100010B5134813490860134848600021114841
:103E200081600121C1600021016141618161C16145
:103E30000162FDF7C9FD002801D0FDF79EF90021C0
:103E40000848FDF751FD002801D0FDF796F9002143
:103E50000448FDF780FD002801D0FDF78EF910BD64
:103E600000540040540300200E09002010B51348F0
:103E700013490860134848600021114881600121FE
:103E8000C1600021016141618161C1610162FDF791
:103E90009BFD002801D0FDF770F900210848FDF7CF
:103EA00023FD002801D0FDF768F900210448FDF743
:103EB00052FD002801D0FDF760F910BD0058004008
:103EC000A00300200E09002010B50F480F4908601C
:103ED000FF200530486000210C488160C16001610D
:103EE00041610121490281611021C161002101620A
:103EF000416281620721C162FEF7FBFC002801D00C
:103F0000FDF73BF910BD000000300140EC0300203C
:103F100000B58BB000200790089009900A9005909A
:103F2000069001900290039004900120800721499F
:103F300008602148486000211E4881607D210901F8
:103F4000C160002101614161FEF718FF002801D026
:103F5000FDF713F901200003079007A91548FEF7A4
:103F6000A9FF002801D0FDF708F91248FFF7BDF8B6
:103F7000002801D0FDF701F92020059000200690CF
:103F800005A90C48FEF7CCFE002801D0FDF7F5F896
:103F90000020019001200290002003900490002254
:103FA00001A90448FFF730F8002801D0FDF7E5F833
:103FB0000BB000BDD40400203F1F00001CB5002042
:103FC000009001900E480F4908600F48486000219A
:103FD0000C4881600D49C16000214161FEF7CEFEB1
:103FE000002801D0FDF7C9F8002000900190694633
:103FF0000448FEF795FE002801D0FDF7BEF81CBD71
:1040000000100040100500203F1F00003075000028
:1040100010B50E480E490860E120400248600021BA
:104020000B488160C16001610C2141610021816107
:10403000C16101620020064948620846FFF7EEFAB6
:10404000002801D0FDF799F810BD000000380140AC
:104050004C05002010B50E480E490860E1204002D2
:10406000486000210B488160C16001610C21416101
:1040700000218161C1610162002006494862084651
:10408000FFF7CCFA002801D0FDF777F810BD00004B
:1040900000440040CC05002010B500BF0022FF21E5
:1040A000013105200007FDF712FC7D20C00005F05E
:1040B00053F8054805F050F8044804F00BFF044895
:1040C00000780028EAD010BD30750000389700084D
:1040D000280000207047000010B5002819DA1A4A9D
:1040E00003071B0F083B9B089B00D2588307DC0E7D
:1040F000FF23A3409A438B071B0E8407E40EA340C3
:104100001A43114B0407240F083CA408A4001A51B9
:1041100018E00E4A03231B02D21883089B00D258D2
:104120008307DC0EFF23A3409A438B071B0E8407F3
:10413000E40EA3401A43054B032424021B198408F0
:10414000A4001A5110BD00001CED00E000E100E0E9
:1041500000BF00BF00BFBFF34F8F00BF00BF00BF55
:1041600006480749C86000BF00BF00BFBFF34F8FBC
:1041700000BF00BF00BF00BF00BFFDE70400FA059D
:1041800000ED00E0704770B50546AC6A20684068F5
:104190008008800021684860606D102108436065D8
:1041A0000121512001552046FEF7A2FB70BD70B5DC
:1041B0000446A56A2846FEF758FC70BD70B5044653
:1041C000A56A2846FEF78DFD70BD70B50446A56A48
:1041D0002846FEF788FD70BD70B50546AC6AFDF750
:1041E0007DFB0646286800682021084020281FD053
:1041F00020684068884321684860206840688008DB
:1042000080002168486032466421204600F089F829
:10421000002801D0202060650020E0870121512086
:104220000155606D002803D02046FEF761FB70BD8C
:104230002046FEF719FC00BFF9E7F8B50546AC6A61
:10424000FDF74CFB0646286800682021084020281E
:104250002ED0206840688843216848602068406804
:10426000022188432168486032466421204600F0DC
:10427000A9F8002803D0606D202108436065A0687C
:10428000002809D100BF00902068C0680090206815
:104290008068009000BF00BF0020E086012151200F
:1042A0000155606D002803D02046FEF721FBF8BDC4
:1042B0002046FEF715FD00BFF9E770B50546AC6A6C
:1042C000FDF70CFB064628680068202108402028DE
:1042D00022D02068406888432168486032466421C3
:1042E000204600F06FF8002803D0606D20210843BD
:1042F0006065206840688008800021684860002070
:10430000E086E087012151200155606D002803D02F
:104310002046FEF7EDFA70BD2046FEF7E3FC00BF35
:10432000F9E7F8B504460E461546FF2105316068E9
:1043300088420ED10121C903A068884203D04911E7
:10434000A068884205D12068006840218843216820
:104350000860FF2105316068884222D1012189026D
:10436000A06888420ED03346002280212046009566
:1043700000F055F8002823D0606D202108436065C7
:104380000320F8BD3346002201212046009500F0AD
:1043900046F8002814D0606D202108436065032092
:1043A000EFE73346002201212046009500F037F860
:1043B000002805D0606D2021084360650320E0E7F8
:1043C0000020DEE7F8B504460E461546FF2105310C
:1043D000606888420ED13346002280212046009535
:1043E00000F01DF8002818D0606D2021084360659A
:1043F0000320F8BD5120005D05280ED13346002270
:1044000001212046009500F00AF8002805D0606DD3
:104410002021084360650320EBE70020E9E7F8B5B9
:1044200004460E4617461D4641E0681C00283ED053
:10443000FDF754FA0699401AA84201D2002D36D150
:1044400020684068E021884321684860FF210531E9
:10445000606888420ED10121C903A068884203D058
:104460004911A068884205D120680068402188432E
:104470002168086001214903A06A88420DD100BF6C
:10448000206800688843216808602068006801216E
:10449000490308432168086000BF012151200155EC
:1044A00000BF00215020015500BF0320F8BD206847
:1044B00080683040B04201D1012000E00020B842C5
:1044C000B3D10020F2E7704710B5FDF751FB10BDE6
:1044D00000B59DB038210FA8FBF77DFE14210AA876
:1044E000FBF779FE242101A8FBF775FE1A48006846
:1044F0000321C90288430121C902401816490860F6
:1045000001200F9000041090002019900FA8FDF7D3
:1045100083FE002801D0FCF730FE0F200A90022015
:104520000B9000200C900D900E9000210AA8FDF732
:10453000DDFC002801D0FCF720FE0B2001900020BC
:1045400004900590079001A8FDF78CFB002801D08E
:10455000FCF713FE1DB000BD007000401548006858
:10456000FF2101310843134908600846C068124919
:1045700008401049C86008460068104908400D49C5
:104580000860084680684008400088600846006867
:10459000012189048843074908600846C068FD2155
:1045A000090488430349C86000200861C80304491E
:1045B00088607047001002400C40FF88F6FFF6FE4E
:1045C00000ED00E010B50248FEF7E9FD10BD000067
:1045D000D404002010B50248FEF7E1FD10BD000034
:1045E0001005002010B5026801239B07984205D0F2
:1045F000154B984202D0154B984205D170241346B2
:10460000A3431A464B681A4301239B07984205D0DF
:104610000D4B984202D00D4B984206D10324240240
:104620001346A3431A46CB681A4380241346A34378
:104630000C6923431A4602608B68C3620B6883626D
:104640000123436110BD0000000801400014014037
:1046500070B5CD06ED0E0124AC402346046A9C43A0
:104660000462046ACE06F60E1546B5402C43046279
:1046700070BD70B50C468168FF2636020D46B54305
:1046800029461D02154325432943816070BD10B59D
:104690000A46816870240B46A34319460723134337
:1046A0001943816010BD70B50B461446026A056A55
:1046B0006D086D0005628169F0260D46B5432946F7
:1046C000250129430A261546B5432A4615461D43AA
:1046D0002A468161026270BDF0B50C46066A760812
:1046E000760006628169056A0126B607B04205D0E8
:1046F000114EB04202D0114EB04201D1012600E06D
:104700000026002E05D0890889000E461643314642
:1047100001E001263143F0260F46B74339461E011A
:10472000F0273E4031430A262F46B7433D462640F8
:10473000354381610562F0BD00080140001401406D
:1047400070B50B461446056A1026B54305628169AB
:10475000026A0F2636030D46B54329462503294331
:10476000A0261546B5432A461D012A4381610262EF
:1047700070BDF0B50C46066A1027BE43066281691B
:10478000056A032636020F46B743394616023143FF
:104790000F2636030F46B74339461E030F273F0344
:1047A0003E403143A0262F46B7433D462601A02771
:1047B0003E40354381610562F0BDF0B50C46066AA6
:1047C000FF270137BE430662C169056A890889006F
:1047D0000E4616433146F0260F46B74339461E01B2
:1047E000F0273E403143052676022F46B7433D462B
:1047F000260205277F023E403543C1610562F0BDB8
:10480000F0B50C46066A01273F03BE430662C16944
:10481000056A032636020F46B7433946160231436E
:104820000F2636030F46B74339461E030F273F03B3
:104830003E403143052676032F46B7433D462603C7
:1048400005277F033E403543C1610562F0BD818C81
:10485000C907C90F002908D001684968012252041C
:104860009143826A1143026851600222416A1140F9
:10487000022907D101684968D2039143C26A1143F2
:10488000026851600422416A1140042907D101687D
:10489000496812049143026B114302685160082277
:1048A000416A1140082907D1016849681203914300
:1048B000426B1143026851601022416A1140102975
:1048C00007D10168896812029143826B1143026823
:1048D00091602022416A1140202907D1016889682E
:1048E00012029143C26B1143026891604022416AF7
:1048F0001140402915D10168496892039143026C27
:1049000011430268516001221205016C914208D1E5
:1049100001684968032252059143426C11430268C1
:1049200051608022416A1140802907D1016849689D
:1049300012039143826C114302685160704700007A
:1049400038B504460020E067FCF7C8FF054620683C
:1049500000680821084008280BD114482B46002283
:1049600089040090204600F017FB002801D00320A6
:1049700038BD206800680421084004280BD10B488A
:104980002B46002209050090204600F005FB002878
:1049900001D00320ECE720206067A06700BF002162
:1049A0007020015500BF0020E2E70000FFFFFF017B
:1049B00070B50546AC6A00215A20015352200153BC
:1049C0002046FEF743FD70BDF8B50546AC6A666F3C
:1049D000A76F2068806880210840802807D1212E99
:1049E00005D1002152200153204600F071F82068C3
:1049F000806840210840402807D1222F05D100219E
:104A00005A200153204600F041F8E06F102108437E
:104A1000E0672046FEF71AFDF8BD70B50546AC6AA2
:104A200000215A2001530F20216808622068806904
:104A300008210843216888612020A0672046FEF7EE
:104A4000B5FC70BD70B50546AC6A286800682021C9
:104A5000084000280FD100215220015320688068AF
:104A600080218843216888602068006840210843CD
:104A70002168086002E02046FFF7EEF870BD70B5CF
:104A80000446A56A2846FFF7FDF870BD016809686D
:104A9000FF22213291430268116001688968490848
:104AA00049000268916020218167002101667047FA
:104AB00010B50446206800684021884321680860DA
:104AC00020206067002060662046FFF7C5F810BD13
:104AD00001680968C0229143026811602021416782
:104AE0007047F8B504465C20075BA06F222827D1E9
:104AF0002068406A86B2656D304638402880606D17
:104B0000801C60655A20005B401E81B25A20015310
:104B1000005B00281AD120680068FF2121318843FA
:104B2000216808602068806840084000216888602B
:104B30002020A067002020662046FEF717FF05E032
:104B4000206880690821084321688861F8BD70B534
:104B500004465C20065BA06F222827D12068406AAB
:104B600085B2F0B22840616D0870606D401C6065D0
:104B70005A20005B401E81B25A200153005B00287E
:104B80001AD120680068FF2121318843216808601C
:104B90002068806840084000216888602020A06765
:104BA000002020662046FEF7E1FE05E020688069CF
:104BB000082108432168886170BD0000F0B587B006
:104BC0000446102004900025002003900026E749A9
:104BD0002068884200D100E000BF2169A068084336
:104BE00061690843E1690843074620680068E049B5
:104BF00008403843216808602068406803210903A1
:104C00008843E168084321684860A769D74920685C
:104C1000884201D0206A0743206880680B2109027E
:104C2000884338432168886000BFD24920688842A1
:104C30001CD1D148C0688007800F002806D0012809
:104C40000AD0022805D003280CD108E001200490E6
:104C50000BE00220049008E00420049005E0082006
:104C6000049002E01020049000BF46E0C349206891
:104C700088421CD1C048C0680C210840002806D0DA
:104C800004280AD0082805D00C280CD108E0002000
:104C900004900BE00220049008E00420049005E05A
:104CA0000820049002E01020049000BF25E0AF49E6
:104CB000206888421FD1B048C0680321890208409B
:104CC000002808D001218902401A0AD0401A05D0D4
:104CD000401A0CD108E0002004900BE00220049060
:104CE00008E00420049005E00820049002E0102071
:104CF000049000BF01E01020049000BF9B49206891
:104D0000884256D1049804281AD004DC002807D021
:104D100002281CD108E0082816D0102817D117E067
:104D2000FDF7EEF9064616E093484038006810217A
:104D300008400009002801D0914E00E0914E0AE0A1
:104D4000FDF702FA064606E00126F60303E000BF7F
:104D50000120039000BF00BF002E0AD06068410010
:104D60004018B04203D860680003B04202D201206C
:104D70000390F4E0606802903046FF21013100F0BA
:104D80008CF9626852080023801859410191009003
:104D9000029AFBF7D7F9054603200002854205D3A6
:104DA0007948854202D82068C560D8E00120039088
:104DB000D5E00121C903E06988426FD10498042835
:104DC0003CD006DC002809D0012813D002284AD1A3
:104DD0001CE008283ED0102845D145E0FDF790F9A9
:104DE000400061684908401802906168FBF780F94B
:104DF00085B23CE0FDF796F940006168490840182B
:104E000002906168FBF774F985B230E05A48403887
:104E10000068102108400009002807D061684A088E
:104E20005A4BD018FBF764F985B206E061684A086E
:104E3000574BD018FBF75CF985B218E0FDF784F901
:104E4000400061684908401802906168FBF750F91A
:104E500085B20CE061684A0801231B04D018FBF7F7
:104E600047F985B203E000BF0120039000BF00BFF7
:104E7000102D0FD3474885420CD846480F3828409C
:104E800005902807400F059908430590059821686B
:104E9000C86064E00120039061E0FFE70498042803
:104EA0003AD006DC002809D0012812D0022847D1C8
:104EB0001AE008283BD0102842D142E0FDF720F943
:104EC00061684908401802906168FBF711F985B2E2
:104ED0003AE0FDF727F961684908401802906168D7
:104EE000FBF706F985B22FE023484038006810210F
:104EF00008400009002807D061684A08204BD018F4
:104F0000FBF7F6F885B206E061684A081D4BD01839
:104F1000FBF7EEF885B217E0FDF716F9616849086E
:104F2000401802906168FBF7E3F885B20CE0616815
:104F30004A080123DB03D018FBF7DAF885B203E057
:104F400000BF0120039000BF00BF102D05D3114802
:104F5000854202D82068C56001E00120039000204E
:104F600020666066039807B0F0BD0000004800406E
:104F7000F369FFEF00380140401002400044004058
:104F800000093D000024F400FFFF0F0000127A002A
:104F90000048E801FFFF0000FFB581B004460D4660
:104FA00017460A9E22E0701C00281FD0FCF796FCD2
:104FB0000499401AB04201D8002E17D12068006829
:104FC000FF21A1318843216808602068806840087B
:104FD00040002168886020206067A06700BF002132
:104FE0007020015500BF032005B0F0BD2068C069E6
:104FF0002840A84201D1012000E00020B842D2D0D0
:105000000020F1E710B5082008490968086208493E
:10501000096808620548FEF71BFA08200349096879
:10502000086203490968086210BD00004C050020B1
:10503000CC05002010B50248FEF70AFA10BD0000AA
:10504000CC0500200FB410B504A9074B02AA0398A1
:1050500000F086FC044602A9002001F01DF820465D
:1050600010BC08BC04B01847996000082021020C4D
:1050700001D010211046020A01D010460839020959
:1050800001D01046091F820801D01046891E42082F
:1050900001D0881E7047081A7047F8B582B28BB2EB
:1050A000040C0D0C10465843002126465E43370C75
:1050B00036048019794116466E43370C3604801940
:1050C000794126466E438919F8BD30B47446641E92
:1050D0002578641CAB4204D3635D5B00E31830BCED
:1050E00018471D46F8E700004900CA0202431000B5
:1050F00000D004204A0D01D001221043044A490D7A
:10510000914201D102210843012800D105207047B6
:10511000FF0700000048704750000020F7B596B028
:1051200014460021A160D160179909914D00CD4925
:105130006D088D4205DC179961602060002019B070
:10514000F0BDC949C94E8D4238DAD32709997F0588
:105150000029C74A1799334617DDFBF795F9B54281
:1051600006D0C44AC44BFBF78FF96160206009E0A8
:105170003A46C14BFBF788F9C04AC14BFBF784F9AB
:1051800061602060012019B0F0BDFBF7D9F8B5428D
:1051900006D0B84AB84BFBF7D3F86160206009E04D
:1051A0003A46B54BFBF7CCF8B44AB54BFBF7C8F819
:1051B000616020600020C04319B0F0BDB1498D424C
:1051C000179977DC490049080746AF4AAF4B04916D
:1051D000FBF768F90022AE4BFBF7B2F8FBF710FFC4
:1051E0000A90FBF767FCA24A334603910290FBF753
:1051F00059F93A46049BFBF74DF906460F469D4A7E
:105200009D4B03990298FBF74DF92A0D01250C924D
:1052100032463B46FBF73EF961602060032D39D0F2
:105220004800410D0C98401A6901691811398142F2
:1052300030DA98492801794408960D9008180497A7
:105240004368026803990298FBF72CF902460B4663
:105250000791069004990898FBF716F906460F4641
:10526000049B089AFBF716F9079B069AFBF70CF9C3
:1052700005918949049079440D984018C368826863
:1052800003990298FBF70EF9059B049AFBF7FCF8CB
:105290006D1CBDE70998002809DA01226068D20771
:1052A000504060600A9819B04042F0BD02E00A9890
:1052B00019B0F0BD09030122090B12050E908918DF
:1052C0001798109140007549400D40184111C006D3
:1052D000C00E0D9113902021081A14900020069002
:1052E00005250790139800280D980CD040198200CE
:1052F0006B487844875813998F4010184168149868
:10530000C1400F4304E04019810066487844475883
:1053100010993846FFF7C1FE06460A9138460E99A5
:10532000FFF7BBFE8A190A9B8A4201D2012100E0E5
:105330000021C9188C46AF00694679188B684E6801
:10534000C318834201D2012000E0002096193618CC
:10535000002802D0964202D903E0964201D20120F1
:1053600000E00020624612184E6068468B60C25111
:1053700028466D1E0028B5DC012102984907401817
:10538000800F1390029805998000039E049D0B9155
:10539000FBF790FB074630460891FBF723FE1D22E2
:1053A000D243FBF71FFB10900F912846FBF71AFE24
:1053B0003D22D243FBF716FB0E900D910B98FBF7A5
:1053C00011FE5D22D243FBF70DFB0B910C900D9B60
:1053D0000E9AFAF7B5FF0F9B109AFAF7B1FF3A460B
:1053E000089BFAF7ADFF00250E463A462846089B73
:1053F000FBF74AF80F9B109AFBF746F80D9B0E9AA5
:10540000FBF742F80B9B0C9AFBF744F8264A274B14
:10541000FBF748F807460D91254A264B31462846AA
:10542000FBF740F83A460D9BFAF78AFF0F46152224
:105430000C9092061D4B31462846FBF733F83B464D
:105440000C9AFAF77DFF179A002A05DA139A52424E
:1054500013920122D207514061602060139819B065
:10546000F0BD0000FB21E93F7CD90240FB21F93F60
:10547000000040543163621A61B4D03D7370032E52
:105480008A19A33BFB21394183C8C96D305FE43FD2
:105490000000E03F46410000064100000BFCFFFF1A
:1054A000BA400000A0400000182D4454FB21F93DF3
:1054B0003326A611460B113CF0B51FB44E00F9205F
:1054C0007608800584B00F46864204DA0498FBF71C
:1054D00097FD002838D0049A3B4610461946FAF743
:1054E000E1FF044602462C480D460B46062178444F
:1054F00000F05CF822462B46FAF7D4FF01910090A9
:105500003946079B069A0498FAF7CCFF07460291A2
:1055100020462946019B009AFAF7C4FF3A46029BAF
:10552000FAF7B2FF074600220091D24320462946EF
:10553000FBF758FA194A96420ADA3A46009BFAF7FC
:10554000A3FF0022164B23E00020154909B0F0BD4F
:10555000144A964202DD0024134D03E00122520555
:10556000B51A002422462B46FAF78EFF0646019113
:1055700022462B4600200A49FAF786FF0D460446CC
:105580003A463046009B0199FAF77EFF22462B46A9
:10559000FAF780FF09B0F0BD563E00003333D33F29
:1055A0000000F03F0000E93F0000D23FF8B504469C
:1055B0004F1EC8000838211815461E46086849685D
:1055C0003A4606239A4310D02A463346FAF76AFF32
:1055D0003A46D200083AA3181A687F1E5B68FAF7A9
:1055E000AFFE06223B469343EED1022F23D0042F79
:1055F00011D0062F2FD12A463346FAF753FFE36A1C
:10560000A26AFAF79DFE2A463346FAF74BFF636A11
:10561000226AFAF795FE2A463346FAF743FFE36912
:10562000A269FAF78DFE2A463346FAF73BFF636913
:105630002269FAF785FE2A463346FAF733FFE36814
:10564000A268FAF77DFE2A463346FAF72BFF636815
:105650002268FAF775FEF8BDF0B51FB4054648009C
:105660000C46F9214008890586B088420BDA2846A5
:105670002146FFF739FD042801D100F089F82846BA
:1056800021460BB0F0BD2A46234610461946FAF7CC
:1056900009FF06460F462A462346FAF703FF009005
:1056A0002548019132463B4605217844FFF77EFFAD
:1056B000029010980391002829D0204A204B01998C
:1056C0000098FAF7EFFE0490059168460FC8FAF7C4
:1056D000E9FE002201910090D24309990898FBF756
:1056E00081F9019B009AFAF7CFFE32463B46FAF762
:1056F000D9FE099B089AFAF7C7FE059B049AFAF7A8
:10570000C3FE2A462346FAF7C5FE0BB0F0BD0B4692
:1057100030463946029AFAF7C5FE084A084BFAF7AE
:105720000FFE019B009AFAF7BDFE2A462346FAF7C0
:1057300007FE0BB0F0BD00009A3D000049555555DD
:105740005555C5BF002210B5134610460149FAF75A
:1057500011FF10BD0000F03F10B50122FBF742F928
:1057600010BD10B5FAF7ECFD10BD002210B51346C0
:1057700010461146FAF7FEFE10BD000010B50721D5
:10578000024A00200907FBF72DF910BD01030000B4
:10579000034A10B500201107FBF724F910BD0000E3
:1057A00001FDFFFF01480068704700005000002025
:1057B00002E008C8121F08C1002AFAD170477047DA
:1057C000002001E001C1121F002AFBD17047000038
:1057D000014908607047000050000020F0B51FB478
:1057E00086B00998089A030D0021024314D051484D
:1057F000514A1818504305141198012810981AD0CE
:10580000281A401C00264D4F4D49009601910490E6
:10581000002812DA444211E01198012449A301281A
:1058200001D11098C1430698119A84600360C26048
:1058300041600BB0F0BD4042E4E704462105002082
:105840003F4A001C51410391029012E0E00707D04B
:1058500032463B4601990098FAF724FE01910090E8
:1058600032463B4610461946FAF71CFE06460F46DE
:105870006410002CEAD10498039B0028029A09992D
:10588000089806DAFAF70EFE019B009AFAF70AFE6C
:1058900005E0FAF76FFE019B009AFAF76BFE0446EB
:1058A0000E460022284BFBF739F903D80020C043ED
:1058B000014607E00022254B20463146FAF740FD1D
:1058C000FBF70CF9102409E0002C0ADB0A22002364
:1058D000FAF738FC079B30321A55641E02460A4319
:1058E000F2D11122641C079B121B1C19119B012B66
:1058F00003D0012308430ED10AE0084304D011204D
:1059000010900020119077E71098151A6D1E0BE08B
:105910001098824202DD00236D1C03E0824201DA0E
:1059200000236D1E002BEED0069811998260C16095
:1059300030C07EE701FCFFFF104D00000000144066
:105940000000F03F300000000000F0430000E03FA6
:1059500030380A2801D2012070470020704700002B
:10596000FFB597B00646002518E2252877D1002418
:105970002746FD49049400E00443761C3278012058
:10598000203A90400842F7D130782A280ED00222DF
:10599000307801463039092916D804990A23594329
:1059A000303940181443761C0490F1E7189802C867
:1059B00004911890002904DA01204003044348426E
:1059C000049002200443761C30782E2814D1042041
:1059D00004437078761C2A2809D11898761C80C850
:1059E000189009E00A214F43303FC719761C3078E0
:1059F000014630390929F5D930786C2810D006DCF9
:105A00004C281AD068280ED06A2817D104E07428D0
:105A100013D07A2812D110E00120400504430CE095
:105A20000121090501E0032109050C437178814238
:105A300003D1012000052418761C761C30781190C3
:105A400066280BD013DC58287DD009DC00287BD0D9
:105A50004528F6D04628F4D047281AD1A5E118E009
:105A6000632835D0642870D0652812D19DE1702854
:105A70006CD008DC6728F1D069287BD06E280DD067
:105A80006F2806D1BAE073282ED0752871D07828F7
:105A900059D01A9A199990476D1C7EE16002400F07
:105AA000022809D003280DD00428189801680DD0C9
:105AB0000D60001D189070E11898EA1701680D60DC
:105AC0004A60F6E7189801680D80F2E70D70F0E77C
:105AD00018986A4601781172001D189000205072C3
